:020000040800F2
:10000000600400209D01000807170008E71200089F
:1000100005170008090200088B1C000800000000FA
:100020000000000000000000000000008917000828
:100030000B02000800000000091700088B170008D9
:10004000B7010008B7010008B7010008B7010008B0
:10005000B7010008B7010008B7010008B7010008A0
:10006000B7010008B7010008B7010008B701000890
:10007000B7010008B7010008B7010008B701000880
:10008000B7010008B7010008B7010008B701000870
:10009000B7010008B7010008B70100083B020008DB
:1000A000B7010008B7010008B7010008B701000850
:1000B000B7010008B7010008B7010008B701000840
:1000C000B7010008B7010008B7010008B701000830
:1000D000B7010008B7010008B7010008B701000820
:1000E0000D020008B7010008B7010008B7010008B9
:1000F000B7010008B7010008B7010008B701000800
:10010000B7010008B7010008B7010008B7010008EF
:10011000B7010008B7010008B7010008B7010008DF
:10012000B7010008B7010008B7010008B7010008CF
:10013000B7010008B7010008B7010008B7010008BF
:10014000B7010008B7010008B7010008B7010008AF
:10015000B7010008B7010008B7010008B70100089F
:10016000B7010008B7010008B7010008B70100088F
:10017000B7010008B70100080000000000000000FF
:10018000B7010008B7010008DFF80CD000F02AF82A
:1001900000480047CD1C0008600400200648804746
:1001A00006480047FEE7FEE7FEE7FEE7FEE7FEE75C
:1001B000FEE7FEE7FEE7FEE7F11700088901000809
:1001C000D2B201E000F8012B491EFBD27047002299
:1001D000F6E710B513460A4604461946FFF7F0FF46
:1001E000204610BD064C074D06E0E06840F00103D4
:1001F00094E8070098471034AC42F6D3FFF7C8FFE5
:10020000581D0008781D0008FEE7704710B54FF430
:10021000806000F037F84FF4006000F033F84FF4DE
:10022000005000F02FF84FF4804000F02BF8BDE8AC
:1002300010404FF4004000F025B810B5202000F029
:1002400021F8402000F01EF8802000F01BF8BDE8E7
:1002500010404FF4807000F015B8000070B50446EF
:1002600000F054F90546601C02D0044800780444AC
:1002700000F04CF9401BA042FAD370BD00000020F2
:1002800070470000044910B50A68024202D00860B5
:10029000FFF7F6FF10BD0000140401402DE9F04FF8
:1002A000DFF83492002309F1040A012403250AF13E
:1002B000040B87B00F270BF1040E04E104FA03F6D8
:1002C00032407CD0D1F804C0BCF1010F08D0BCF1A1
:1002D000020F05D0BCF1110F02D0BCF1120F29D1D1
:1002E000D0F808C0CDF800C04FEA430C05FA0CF86E
:1002F000CDF80CC0DDF800C02CEA080CCDF800C029
:10030000D1F80C80DDF80CC008FA0CF8DDF800C05C
:1003100048EA0C08C0F80880D0F8048091F804C0BE
:1003200028EA0608CCF3001C0CFA03FC4CEA080C83
:10033000C0F804C0D1F804806FEA080C5FEA8C7C36
:1003400009D1D0F82CC02CEA060CC8F3C0069E4098
:1003500046EA0C06C662D0F80CC04FEA430805FA1C
:1003600008F62CEA060CCDF8148002968E6806FA80
:1003700008F646EA0C06C6604E68022E01D0122E20
:1003800015D1DE0800EB86060396366A4FEA437CF9
:100390004FEADC6807FA08FC26EA0C06D1F810C020
:1003A0000CFA08FC4CEA060C039EC6F820C006684E
:1003B000DDF808C026EA0C0691F804C000E081E0F0
:1003C000DDF814800CF0030C0CFA08FC4CEA060C67
:1003D000C0F800C04E68F60074D5404ED6F860C034
:1003E0004CF0010CC6F860C0366E23F0030C06F02A
:1003F000010600963A4E66440296D6F808C09E075B
:100400004FEA167807FA08F62CEA060CB0F1904F7E
:1004100004D0344EB04203D101261BE0002619E07F
:10042000314EB04201D1022614E0304EB04201D12B
:1004300003260FE02E4EB04201D104260AE02D4ED5
:10044000B04201D1052605E02B4EB04201D106266F
:1004500000E0072606FA08F646EA0C06DDF808C0B2
:10046000CCF80860D9F80060CC46D1F804809643F7
:100470005FEAC83800D51643CCF80060DAF80060AF
:10048000D446D1F8048096435FEA883800D51643F5
:10049000CCF80060DBF80060DC46D1F804809643BD
:1004A0005FEAC82800D51643CCF80060DEF800608B
:1004B000F446D1F8048096435FEA882800D51643B5
:1004C000CCF800605B1C0A6832FA03F67FF4F6AEE3
:1004D00007B000F013B80000000401400010024013
:1004E000000001400004004800080048000C0048DB
:1004F00000100048001400480018004830BCBDE857
:10050000C08F0AB18161704781627047014880687D
:100510007047000000000020024881680278114402
:10052000816070470000002010B50024032000F017
:1005300071F8002000F008F808B1012401E000F093
:1005400025F8204610BD000070B50E4E054600246B
:10055000307898B14FF47A71B1FBF0F00A4909682C
:10056000B1FBF0F000F01AFC40B9102D06D20022C9
:100570002946501E00F02EF8756000E00124204648
:1005800070BD0000000000200C000020094808B5E4
:10059000016E41F001010166016E01F0010100915F
:1005A000816D41F080518165806D00F08050009038
:1005B00008BD000000100240002809DB00F01F0207
:1005C000012191404009800000F1E020C0F80011B5
:1005D00070470000F0B40E4B1B680C46C3F30223B7
:1005E000C3F10705042D00D90425191D072901D2DF
:1005F000002300E0DB1E012606FA05F1491E21401A
:1006000099409E40761E16403143F0BC01F03EBB3F
:100610000CED00E0064900F0070208684FF6FF0302
:10062000184040EA0220034A104308607047000067
:100630000CED00E00000FA051649B0F5007F0868EF
:10064000C0F3412009D0022805D0086820F4C0601A
:1006500040F480600860002070470128FBD00868E3
:1006600020F4C06040F4007008600B48322200683B
:1006700050430A4AB0FBF2F0401C00E0401E4A69B9
:10068000520501D50028F9D148694005E3D503207A
:1006900070470000007000400C00002040420F0036
:1006A0000248006800F4C06070470000007000401D
:1006B0002DE9F0470F46050058D0404E306800F055
:1006C0000700B84209D2306820F007003843306094
:1006D000306800F00700B84248D12878384CC0078D
:1006E0002CD06868032811D0022812D0216898B154
:1006F000490500293ADAA16821F003010143A1600C
:10070000FFF704FF804641F2883910E02168890133
:10071000EFE721688903ECE78907EAE7FFF7F6FED0
:10072000A0EB0801494502D90320BDE8F087A06885
:10073000696800F00C00B0EB810FEFD128788007DA
:1007400005D5A068A96820F0F0000843A0603068D3
:1007500000F00700B8420BD9306820F0070038439A
:100760003060306800F00700B84201D00120DCE7BB
:100770002878400705D5A068E96820F4E0600843C0
:10078000A0602878000706D5A068296920F4605089
:1007900040EAC100A06000F01BF8A168094AC1F35B
:1007A0000311515C01F01F01C84007490860074868
:1007B0000068BDE8F047FFF7C7BE00000020024018
:1007C00000100240181D00080C000020040000204A
:1007D00070B52549002318468A68CC6812F00C02CF
:1007E00004F00306214C4FEA640509D00C2A05D019
:1007F000042A32D0082A00D1284670BD012E10D11B
:100800000B681B0704D4D1F89430C3F3032302E030
:100810000B68C3F30313164E56F82330DAB10C2AD3
:10082000EBD1C86800F00300022818D0032818D0C4
:100830001846CA68CB68C2F30212C3F306234343C7
:10084000521CB3FBF2F2C868C0F34160401C400088
:10085000B2FBF0F070BD184670BD204670BD20465A
:10086000E7E72846E5E70000001002400024F40016
:10087000281D00082DE9F84304006FD0FE4DA8683C
:1008800000F00C06E86800F003072078C00664D585
:1008900076B10C2E01D1012F0AD0A069002828685A
:1008A0007AD040F001002860FFF730FE80465DE01E
:1008B0002868800702D5A0690028DED0216A286850
:1008C000000703D5286800F0F00004E0D5F8940094
:1008D000F02202EA1010814216D9084600F016FFF5
:1008E00000283BD1286840F0080028602868216A69
:1008F00020F0F000084328606868E16920F47F4038
:1009000040EA0120686016E0286840F0080028608E
:100910002868216A20F0F000084328606868E169CF
:1009200020F47F4040EA0120686026B9206A00F088
:10093000EDFE0028D5D1FFF74BFFA968CF4AC1F3E0
:100940000311515C01F01F01C840CD490860CD483A
:100950000068FFF7F9FD00287ED12EE0CAE000BF55
:10096000FFF7D4FDA0EB0800022876D8286880079E
:10097000F6D5286840F0080028602868216A20F031
:10098000F000084328606868E16920F47F4040EA8D
:100990000120686011E0FFE720F001002860FFF708
:1009A000B5FD804606E000BFFFF7B0FDA0EB0800F4
:1009B0000228DAD828688007F6D42078C00740D00B
:1009C000082E18D00C2E01D1032F14D06068B0F57A
:1009D000803F17D0B0F5A02F286817D020F48030C2
:1009E0002860286820F4802028606068E0B1FFF764
:1009F0008DFD804614E02868800322D560680028B9
:100A000078D01EE0286840F48030EDE740F4802084
:100A10002860F7E7FFF77AFDA0EB08006428A4D868
:100A200028688003F6D50CE0FFF770FD804605E0EE
:100A3000FFF76CFDA0EB0800642896D828688003B7
:100A4000F6D4207880073BD5042E11D00C2E01D18E
:100A5000022F0DD0E06801E092E1F1E00028286863
:100A60001ED040F480702860FFF750FD07460CE070
:100A7000286840050CD5E0680028C1D008E000BF18
:100A8000FFF744FDC01B022893D828684005F7D51E
:100A90006868217C20F0F85040EA016068600FE04F
:100AA00020F480702860FFF731FD074605E000BFA5
:100AB000FFF72CFDC01B0228B1D828684005F7D4E9
:100AC0002078000729D560690028D5F8940012D055
:100AD00040F00100C5F89400FFF718FD074604E058
:100AE000FFF714FDC01B022899D8D5F894008007A1
:100AF000F6D512E000E120F00100C5F89400FFF700
:100B000005FD074605E000BFFFF700FDC01B0228FA
:100B100085D8D5F894008007F6D42078400766D5AC
:100B2000A86D0027C00008D4A86D40F08050A865CB
:100B3000A86D012700F08050009053480168C90556
:100B400012D40168814641F480710160FFF7DEFC38
:100B5000804605E0FFF7DAFCA0EB080002286FD81A
:100B6000D9F80000C005F5D5A068012816D00528E1
:100B7000D5F8900017D020F00100C5F89000D5F806
:100B8000900020F0040000BFC5F89000A06841F27A
:100B90008839C0B1FFF7BAFC80460FE0D5F8900065
:100BA00040F00100F0E740F00400C5F89000F5E7E0
:100BB000FFF7ACFCA0EB0801494541D8D5F89000FF
:100BC0008007F5D50EE0FFF7A1FC804606E000BFE8
:100BD000FFF79CFCA0EB0801494531D8D5F89000FF
:100BE0008007F5D41FB1A86D20F08050A865A06AD9
:100BF00038B302280AD00C2E7ED0286820F08070EE
:100C00002860286810F0205F77D0AAE0E868E26AE0
:100C100000F0030191422BD1216B00F07002090119
:100C20001039914224D1626B00F4FE41B1EB022FE6
:100C30001ED1A26B00F40031072A03D0012202E08A
:100C40009DE089E00022914212D1A18F00F4C00200
:100C500049084905A1F50011914209D194F84010C5
:100C600000F0C06049084906A1F1007181425CD0E2
:100C70000C2E41D0286809E000100240181D000821
:100C80000C000020040000200070004040017ED4D1
:100C90002868C0007BD4286820F080702860FFF7A7
:100CA00035FC064605E000BFFFF730FC801B02283C
:100CB00065D828688001F7D4D4E90B016FF00F02E2
:100CC00002EB01110843A18F5204490802EB415184
:100CD000626B41EA0221084394F840104FF07E42D3
:100CE000490802EB41610843A16B090940EA414010
:100CF000E968284A114001E049E02EE00843E86035
:100D0000286840F080702860E86840F08070E860F3
:100D1000FFF7FCFB044604E0FFF7F8FB001B02288A
:100D20002DD828688001F7D52FE0286880012CD4C1
:100D3000286840F080702860E86840F08070E860C3
:100D4000FFF7E4FB044604E0FFF7E0FB001B02288A
:100D500015D828688001F7D517E0E86820F003006F
:100D6000E860E8680C490840E860FFF7CFFB0446FC
:100D700008E000BFFFF7CAFB001B022802D90320CE
:100D8000BDE8F88328688001F4D40020F8E701204A
:100D9000F6E700008C809DF9FFFFEEFE10B5401EC7
:100DA000B0F1807F01D3012010BD4FF0E0246061DD
:100DB0000F21601700F06AFF0020A061072020616A
:100DC000002010BD30B590F83C20012A3AD0012215
:100DD00080F83C20CA688B6822F440721A434B6842
:100DE00022F480621A430B6822F400621A430B69F2
:100DF00022F480521A434B6922F400521A438B6A40
:100E000022F480421A430B8B22F4702242EA0342FE
:100E10000D4D03680024AB4202D00C4DAB420CD107
:100E20008D8C22F4700242EA0552CD6922F0807264
:100E30002A43096A22F000720A435A6480F83C404F
:100E4000002030BD022030BD002C014000340140A4
:100E5000F0B590F83C20012A39D0012480F83C40BC
:100E6000022280F83D20026853689568194E1A4F97
:100E7000B24201D0BA4204D123F4700C4B6843EA69
:100E80000C0323F0700C0B6843EA0C0353600268F8
:100E9000B24210D0B2F1804F0DD0104B9A420AD01E
:100EA0000F4B9A4207D00F4B9A4204D0BA4202D05D
:100EB0000D4B9A4204D1896825F080031943916053
:100EC00080F83D40002180F83C100846F0BD02202B
:100ED000F0BD0000002C014000340140000400403F
:100EE00000080040000C00400040014010B50446DE
:100EF000022249B104290ED0082913D094F84700E2
:100F0000012816D0012010BD94F844000128F9D121
:100F100084F844200FE094F845000128F2D184F8C9
:100F2000452008E094F846000128EBD184F84620DB
:100F300001E084F847200422206800F0DBFC2068F0
:100F4000416C41F40041416411492068884211D04C
:100F5000B0F1804F0ED00F4988420BD00E49884225
:100F600008D00E49884205D00D49884202D00D496B
:100F7000884207D181680C4A1140062906D0B1F594
:100F8000803F03D0016841F001010160002010BDE5
:100F9000002C01400004004000080040000C00400C
:100FA00000340140004001400700010010B504007A
:100FB00003D094F83D0010B107E0012010BD0020DF
:100FC00084F83C00204600F023F8022084F83D001D
:100FD000211D206800F02EFC012084F8480084F8D0
:100FE0003E0084F83F0084F8400084F8410084F813
:100FF000420084F8430084F8440084F8450084F8F3
:10100000460084F8470084F83D00002010BD000031
:1010100008B500680649884208D10648016E41F4C7
:1010200000610166006E00F40060009008BD0000E1
:10103000002C01400010024070B5044690F83C00BE
:10104000012817D0012584F83C50022084F83D0087
:10105000226890682E4B184020F47F40906008680A
:10106000502830D00DDC20284DD005DC98B3102856
:101070003BD148E0022070BD302844D0402834D114
:1010800039E0602828D0702806D0B0F5805F2CD0D9
:10109000B0F5005F29D10AE0CB68D1E901212068D1
:1010A00000F035FC2068816841F0770109E0CB68E9
:1010B000D1E90121206800F02AFC2068816841F410
:1010C0008041816011E0CA684968206800F0BAFD7B
:1010D0005021206807E016E0CA684968206800F0DF
:1010E000C2FD6021206800F01CFC84F83D50002007
:1010F00084F83C0070BDCA684968206800F0A2FD11
:1011000040212068EFE7226801461046EBE7000027
:1011100088FFFEFF10B586B0044614216846FFF72D
:1011200056F80E492068884216D10D48C16C41F02E
:101130000101C164C06C002100F001000590802015
:1011400000900220CDE9010103900120049069463E
:101150004FF09040FFF7A2F806B010BD002C014000
:101160000010024070B5044690F83C000D4601287E
:101170000BD0012084F83C000C2A45D007DC5AB182
:10118000042A1BD0082A78D12CE0022070BD102A36
:101190004ED0142A71D15DE0206800F0CBFB2068AE
:1011A000816941F0080181612068816921F00401B1
:1011B0008161206881692A69114311E0206800F08B
:1011C00007FC2068816941F40061816120688169C0
:1011D00021F480618161206881692A6941EA0221E4
:1011E00081614AE0206800F03BFC2068C16941F061
:1011F0000801C1612068C16921F00401C161206852
:10120000C1692A69114311E0206800F071FC20686F
:10121000C16941F40061C1612068C16921F4806144
:10122000C1612068C1692A6941EA0221C16124E0E3
:10123000206800F097FC2068416D41F0080141658D
:101240002068416D21F0040141652068416D2A69E3
:10125000114311E0206800F0BDFC2068416D41F4AD
:10126000006141652068416D21F48061416520681D
:10127000416D2A6941EA02214165002084F83C0061
:1012800070BD10B5040003D094F83D0010B107E024
:10129000012010BD002084F83C00204600F022F818
:1012A000022084F83D00211D206800F0C3FA0120CF
:1012B00084F8480084F83E0084F83F0084F8400039
:1012C00084F8410084F8420084F8430084F8440024
:1012D00084F8450084F8460084F8470084F83D000F
:1012E000002010BD7047FEE72DE9F04F87B01421B4
:1012F0006846FEF76CFFCD48C16C41F01001C16437
:10130000C16C01F010010591C16C41F00401C16490
:10131000C16C01F004010591C16C41F00101C1648F
:10132000C16C01F001010591C16C41F00201C16481
:10133000C16C01F002010591C16C41F00801C1646A
:10134000C06CDFF8EC9200F00800059000224FF42A
:101350008A714846FFF7D5F8002248F204114FF091
:101360009040FFF7CEF800224FF21401B148FFF78A
:10137000C8F8002241F28101AF48FFF7C2F801220C
:101380005103AD48FFF7BDF800224FF41071AB4890
:10139000FFF7B7F801222021A648FFF7B2F8012293
:1013A00011464846FFF7ADF840F2151000900125B0
:1013B0000024CDE90154694648460394FEF76EFFC8
:1013C0009F4E6A20CDE90006694602944846FEF722
:1013D00065FF680300909B48CDE901046946974882
:1013E000FEF75CFF3F200B27CDE90007694602941A
:1013F0009248FEF753FF032000900220CDE901043C
:10140000032003900820049069464FF09040FEF7B7
:1014100045FF48F204100090CDE9015469464FF0B1
:1014200090400394FEF73AFF082000900220CDE997
:10143000010469464FF09040CDE90345FEF72EFFC9
:101440001020CDE90007694602944FF09040FEF766
:1014500025FF602000900220CDE9010403200390C5
:101460000520049069464FF09040FEF717FF009565
:10147000CDE9016469466F48FEF710FF0220CDE90F
:101480000007694602946B48FEF708FF4FF23400EC
:101490000090CDE90154694666480394FEF7FEFECC
:1014A0004FF4207000900220CDE901040620CDE920
:1014B000034069464846FEF7F1FE4FF47C40009039
:1014C0000220CDE9010403204FF00A08CDE903080A
:1014D00069464846FEF7E2FE4FF440604FF01209BD
:1014E000CDE900090320CDE902504FF0040A694616
:1014F000CDF810A04F48FEF7D1FE4FF4407B0220FC
:10150000CDF800B0CDE9010403200727CDE903079A
:1015100069464948FEF7C2FE4CF60440CDE9000694
:10152000694602944448FEF7B9FE43F281000090F8
:10153000CDE90154694640480394FEF7AFFE4FF4ED
:1015400010700090CDE9015469463C480394FEF7C1
:10155000A5FE4FF4C070CDE90006694602943748F5
:10156000FEF79CFE6802CDE9000469464FF090400A
:101570000294FEF793FEBE0202200096CDE901041C
:101580000320CDE9030869464FF09040FEF786FE40
:1015900002200096CDE90104032003900620049068
:1015A00069462648FEF77AFE02200090CDE9010444
:1015B000032003900520049069461F48FEF76EFE45
:1015C000782000900220CDE901040320CDE9030733
:1015D00069461948FEF762FEC02000900220CDE95E
:1015E00001040320CDE9030769461248FEF756FEC1
:1015F0000320CDE90250CDE900B96946CDF810A02D
:101600000C48FEF74BFE002211461720FEF7E2FFC2
:101610001720FEF7D1FF002211462820FEF7DAFF3F
:101620002820FEF7C9FF07B000F00EB800100240F6
:101630000010004800040048000C00480008004862
:10164000000011100000211030BCBDE8C08F000068
:1016500010B59AB000241794189415941694129407
:1016600013941C210BA81494FEF7B1FD2C2168469D
:10167000FEF7ADFD22482149016040F28F11C0E91B
:10168000011440F69F71C0E9031444618461FFF7BF
:101690008DFC4FF48050159015A91948FFF7CCFC2C
:1016A0001748FFF7EEFD1294139412A914481494EE
:1016B000FFF7CEFB6020CDE90B040D940E940F9440
:1016C000109400220BA90E481194FFF74BFD0094D3
:1016D0004FF40050CDE904400194029403940003B8
:1016E0000694CDE907400994694605480A94FFF736
:1016F00069FB0348FFF70EFD1AB010BD002C014036
:1017000010000020FEE7704770470000F8B51C4D40
:1017100006460024A86DC00002D5FEF7C1FF0DE00B
:10172000A86D40F08050A865A86D00F08050009032
:10173000FEF7B6FFA96D21F08051A965B0F5007FD5
:1017400004D0802E07D94FF003040AE0802E08D978
:10175000A02E01D804E001D1022402E0702E00D1B5
:1017600001240848016821F0070121430160006855
:1017700000F00700A04201D00120F8BD0020F8BD14
:1017800000100240002002407047FEF7C5BE10B5B1
:1017900096B044216846FEF71AFD142111A8FEF701
:1017A00016FD102000900120002460210690CDE954
:1017B00007410221CDE90A100C9028200D90072046
:1017C000CDE90E0168461091FFF754F80F201190F3
:1017D0000320CDE912041494042111A81594FEF7F6
:1017E00067FF4FF40070FEF727FF16B010BD000032
:1017F0000D48016841F4700101600C48016841F036
:1018000001010160002181600268094B1A400260F9
:101810008214C260026822F480220260816102495F
:10182000C00380390860704788ED00E00010024076
:10183000FFFFF6EA2DE9F0470268264B264D274EBA
:10184000274F284C4FF0804A984209D0504507D086
:10185000A84205D0B04203D0B84201D0A04204D182
:1018600022F0700C4A6842EA0C02DFF87CC0DFF814
:101870007C80DFF87C9098420FD050450DD0A84274
:101880000BD0B04209D0B84207D0A04205D0604585
:1018900003D0404501D0484503D122F44075CA68C1
:1018A0002A434D6922F080022A4302608A68C2629C
:1018B0000A688262984207D0A04205D0604503D0F2
:1018C000404501D0484501D10969016301214161C9
:1018D000BDE8F087002C01400004004000080040F3
:1018E000000C004000340140004001400044014031
:1018F0000048014010B501F01F030421046A99401B
:101900008C430462016A9A401143016210BD10B514
:10191000846842EA032224F47F440A43224382601B
:1019200010BD826822F070020A4342F00701816014
:10193000704700002DE9F043026A22F001020262C2
:10194000056A436882691C4C25F0020522400C6838
:1019500022F0030214438A68194E2A43174D194F87
:10196000DFF864C0DFF86490A84207D0B04205D029
:10197000B84203D0604501D0484506D122F008089E
:10198000CA6842EA080222F00402A84207D0B04224
:1019900005D0B84203D0604501D0484505D14D6916
:1019A00023F440731D438B692B4343608461496872
:1019B00041630262BDE8F0838FFFFEFF002C01400F
:1019C0000034014000400140004401400048014013
:1019D000F0B5026A22F010020262056A4268836969
:1019E000194C1B4E23400C6823F4407343EA042433
:1019F00025F020038D6843EA0513144DA84201D059
:101A0000B04206D1CF6823F0800343EA071323F0E6
:101A10004003A8420AD0B04208D00E4DA84205D0DB
:101A20000D4DA84202D00D4DA84207D14D6922F4B8
:101A3000406242EA85028D6942EA85024260846121
:101A4000496881630362F0BDFF8FFFFE002C0140F7
:101A50000034014000400140004401400048014082
:101A6000F0B5026A22F480720262056A4368C269B4
:101A7000194C1B4E22400C6822F00302144325F43B
:101A800000728D6842EA0522144DA84201D0B0428E
:101A900006D1CF6822F4006242EA072222F4806273
:101AA000A8420AD0B04208D00E4DA84205D00E4D33
:101AB000A84202D00D4DA84207D14D6923F44053EE
:101AC00043EA05138D6943EA05134360C46149681D
:101AD000C1630262F0BD00008FFFFEFF002C0140D9
:101AE00000340140004001400044014000480140F2
:101AF00030B5026A22F480520262046A4268C36905
:101B0000124D24F400542B400D6823F4407343EA33
:101B100005238D6844EA05340D4DA8420BD00D4DC8
:101B2000A84208D00C4DA84205D00C4DA84202D0C6
:101B30000B4DA84204D14D6922F4804242EA85123D
:101B40004260C36149680164046230BDFF8FFFFEDB
:101B5000002C01400034014000400140004401409D
:101B60000048014030B5026A22F480320262046A01
:101B70004268436D114D2B400D681D4324F4003322
:101B80000C8943EA04430E4CA0420BD00D4CA042FA
:101B900008D00D4CA04205D00C4CA04202D00C4CF9
:101BA000A04204D14C6922F4803242EA042242600D
:101BB000456549688165036230BD00008FFFFEFF07
:101BC000002C01400034014000400140004401402D
:101BD0000048014030B5026A22F480120262046AB1
:101BE0004268436D114D24F400142B400D6843EA04
:101BF00005230D8944EA05540D4DA8420BD00D4D27
:101C0000A84208D00C4DA84205D00C4DA84202D0E5
:101C10000B4DA84204D14D6922F4802242EA85226C
:101C2000426043654968C165046230BDFF8FFFFEB5
:101C3000002C0140003401400040014000440140BC
:101C40000048014010B5036A046A24F001040462EC
:101C5000846924F0F00444EA021423F00A020A43DF
:101C60008461026210BD10B5036A23F010030362A1
:101C70008369046A23F4704343EA023224F0A00328
:101C800043EA01118261016210BDFEE70907090EF6
:101C9000002804DB00F1E02080F80014704700F019
:101CA0000F0000F1E02080F8141D704702E008C822
:101CB000121F08C1002AFAD170477047002001E0C6
:101CC00001C1121F002AFBD170470000FEF72CFC57
:101CD000FFF75DFDFFF708FBFFF7BAFC0C4CC827C8
:101CE0004FF4C876276000210A48FFF7FFF8C8259F
:101CF00025600220FEF7B2FA6D1CB542F8DB3546CE
:101D000025600220FEF7AAFA6D1EBD42F8DCEEE760
:101D1000342C0140100000200000000000000000F2
:101D20000102030406070809A0860100400D030014
:101D3000801A060000350C0040420F0080841E000F
:101D400000093D0000127A000024F40000366E0104
:101D50000048E801006CDC02781D0008000000204B
:101D600010000000AC1C0008881D000810000020B6
:101D700050040000BC1C000801000000100000001E
:081D80000000000000093D0015
:040000050800018965
:00000001FF
